{
  "contractName": "Marketplace",
  "abi": [
    {
      "inputs": [],
      "stateMutability": "nonpayable",
      "type": "constructor"
    },
    {
      "anonymous": false,
      "inputs": [
        {
          "indexed": false,
          "internalType": "address",
          "name": "seller",
          "type": "address"
        },
        {
          "indexed": false,
          "internalType": "uint256",
          "name": "price",
          "type": "uint256"
        }
      ],
      "name": "ListItem",
      "type": "event"
    },
    {
      "anonymous": false,
      "inputs": [
        {
          "indexed": false,
          "internalType": "address",
          "name": "seller",
          "type": "address"
        },
        {
          "indexed": false,
          "internalType": "address",
          "name": "buyer",
          "type": "address"
        },
        {
          "indexed": false,
          "internalType": "uint256",
          "name": "price",
          "type": "uint256"
        }
      ],
      "name": "PurchasedItem",
      "type": "event"
    },
    {
      "inputs": [],
      "name": "State",
      "outputs": [
        {
          "internalType": "enum Marketplace.StateType",
          "name": "",
          "type": "uint8"
        }
      ],
      "stateMutability": "view",
      "type": "function"
    },
    {
      "inputs": [
        {
          "internalType": "address",
          "name": "",
          "type": "address"
        }
      ],
      "name": "balances",
      "outputs": [
        {
          "internalType": "uint256",
          "name": "",
          "type": "uint256"
        }
      ],
      "stateMutability": "view",
      "type": "function"
    },
    {
      "inputs": [],
      "name": "buyer",
      "outputs": [
        {
          "internalType": "address",
          "name": "",
          "type": "address"
        }
      ],
      "stateMutability": "view",
      "type": "function"
    },
    {
      "inputs": [],
      "name": "seller",
      "outputs": [
        {
          "internalType": "address",
          "name": "",
          "type": "address"
        }
      ],
      "stateMutability": "view",
      "type": "function"
    },
    {
      "inputs": [
        {
          "internalType": "address",
          "name": "seller",
          "type": "address"
        },
        {
          "internalType": "address",
          "name": "buyer",
          "type": "address"
        },
        {
          "internalType": "uint256",
          "name": "price",
          "type": "uint256"
        }
      ],
      "name": "buy",
      "outputs": [],
      "stateMutability": "payable",
      "type": "function"
    }
  ],
  "bytecode": "0x608060405234801561000f575f80fd5b50335f806101000a81548173ffffffffffffffffffffffffffffffffffffffff021916908373ffffffffffffffffffffffffffffffffffffffff1602179055505f60035f6101000a81548160ff021916908360018111156100735761007261007d565b5b02179055506100aa565b7f4e487b71000000000000000000000000000000000000000000000000000000005f52602160045260245ffd5b610680806100b75f395ff3fe608060405260043610610049575f3560e01c806308551a531461004d578063153e66e61461007757806327e235e3146100935780637150d8ae146100cf578063f1b6dccd146100f9575b5f80fd5b348015610058575f80fd5b50610061610123565b60405161006e9190610361565b60405180910390f35b610091600480360381019061008c91906103db565b610146565b005b34801561009e575f80fd5b506100b960048036038101906100b4919061042b565b6102d6565b6040516100c69190610465565b60405180910390f35b3480156100da575f80fd5b506100e36102eb565b6040516100f09190610361565b60405180910390f35b348015610104575f80fd5b5061010d610310565b60405161011a91906104f1565b60405180910390f35b5f8054906101000a900473ffffffffffffffffffffffffffffffffffffffff1681565b60025f8373ffffffffffffffffffffffffffffffffffffffff1673ffffffffffffffffffffffffffffffffffffffff1681526020019081526020015f20548111156101c6576040517f08c379a00000000000000000000000000000000000000000000000000000000081526004016101bd90610564565b60405180910390fd5b600160035f6101000a81548160ff021916908360018111156101eb576101ea61047e565b5b02179055508060025f8473ffffffffffffffffffffffffffffffffffffffff1673ffffffffffffffffffffffffffffffffffffffff1681526020019081526020015f205f82825461023c91906105af565b925050819055508060025f8573ffffffffffffffffffffffffffffffffffffffff1673ffffffffffffffffffffffffffffffffffffffff1681526020019081526020015f205f82825461028f91906105e2565b925050819055507f2114172e14ede64480d6a396d65773782893da59db91a47c82c4fe60c9e1fcf58383346040516102c993929190610615565b60405180910390a1505050565b6002602052805f5260405f205f915090505481565b60015f9054906101000a900473ffffffffffffffffffffffffffffffffffffffff1681565b60035f9054906101000a900460ff1681565b5f73ffffffffffffffffffffffffffffffffffffffff82169050919050565b5f61034b82610322565b9050919050565b61035b81610341565b82525050565b5f6020820190506103745f830184610352565b92915050565b5f80fd5b61038781610341565b8114610391575f80fd5b50565b5f813590506103a28161037e565b92915050565b5f819050919050565b6103ba816103a8565b81146103c4575f80fd5b50565b5f813590506103d5816103b1565b92915050565b5f805f606084860312156103f2576103f161037a565b5b5f6103ff86828701610394565b935050602061041086828701610394565b9250506040610421868287016103c7565b9150509250925092565b5f602082840312156104405761043f61037a565b5b5f61044d84828501610394565b91505092915050565b61045f816103a8565b82525050565b5f6020820190506104785f830184610456565b92915050565b7f4e487b71000000000000000000000000000000000000000000000000000000005f52602160045260245ffd5b600281106104bc576104bb61047e565b5b50565b5f8190506104cc826104ab565b919050565b5f6104db826104bf565b9050919050565b6104eb816104d1565b82525050565b5f6020820190506105045f8301846104e2565b92915050565b5f82825260208201905092915050565b7f496e73756666696369656e742062616c616e63650000000000000000000000005f82015250565b5f61054e60148361050a565b91506105598261051a565b602082019050919050565b5f6020820190508181035f83015261057b81610542565b9050919050565b7f4e487b71000000000000000000000000000000000000000000000000000000005f52601160045260245ffd5b5f6105b9826103a8565b91506105c4836103a8565b92508282039050818111156105dc576105db610582565b5b92915050565b5f6105ec826103a8565b91506105f7836103a8565b925082820190508082111561060f5761060e610582565b5b92915050565b5f6060820190506106285f830186610352565b6106356020830185610352565b6106426040830184610456565b94935050505056fea264697066735822122024c113473d78b1e149940bdaec51a76c3df246dc77d7704f7a28a244b105813064736f6c63430008150033",
  "immutableReferences": {},
  "source": "pragma solidity >0.7.0;\n\ncontract Marketplace {\n    address public seller;\n    address public buyer;\n    mapping (address => uint) public balances;\n\n    event ListItem(address seller, uint price);\n    event PurchasedItem(address seller, address buyer, uint price);\n\n    enum StateType {\n          ItemAvailable,\n          ItemPurchased\n    }\n\n    StateType public State;\n\n    constructor()  {\n        seller = msg.sender;\n        State = StateType.ItemAvailable;\n    }\n\n    function buy(address seller, address buyer, uint price) public payable {\n        require(price <= balances[buyer], \"Insufficient balance\");\n        State = StateType.ItemPurchased;\n        balances[buyer] -= price;\n        balances[seller] += price;\n\n        emit PurchasedItem(seller, buyer, msg.value);\n    }\n}",
  "sourcePath": "/workspaces/bam-smartcontract/contracts/Marketplace.sol",
  "compiler": {
    "name": "solc",
    "version": "0.8.21+commit.d9974bed.Emscripten.clang"
  },
  "schemaVersion": "3.4.16",
  "updatedAt": "2024-10-26T21:50:34.850Z",
  "devdoc": {
    "kind": "dev",
    "methods": {},
    "version": 1
  },
  "userdoc": {
    "kind": "user",
    "methods": {},
    "version": 1
  }
}